:10021A00E4FDFCC3ED9FEC9E5015E4FBFA0BBB001A
:0F022A00010AEB647B4A70F50DBD00010C80E406
:0102390022A2
:0800060042616E20536F2000DF
:1001D0008F17D2A2C280851790C2827F0A7E00123A
:1001E000021AD282E517D3940250047F0280027F64
:0701F000017E0012021A2239
:10023A00D2A2D2808F90C2827F0A7E0012021AD284
:08024A00827F017E0002021A0E
:0601F7008B178A1889191C
:1001FD00E4F51AAB17AA18A919851A82758300128E
:0C020D0001A3FF600712023A051A80E707
:0102190022C2
:100174008F167F0C1201D07F011201D07BFF7A0011
:1001840079061201F7E51675F00A842430FF12028D
:0F0194003AE51675F00A84E5F02430FF02023ACE
:03000E00011400DA
:10011000C281C2A4C2A5C2A6C2A7D28AD2AAD288CC
:10012000D2A8D2B8D2AF7F0C7808E4F608DFFCAFD3
:1001300008120174C2877FE87E0312021AD2874335
:04014000870180EBC8
:03000300020144B3
:0B014400C0E0C0D075D000C000C007B4
:10014F00E4FF74082FF8E665A06011E514B5070900
:0C015F002408F8A6A0051480030F80E619
:09016B00D007D000D0D0D0E03262
:030013000200A246
:1000A200C0E0C0F0C083C082C0D075D000C000C024
:0D00B20001C002C003C004C005C006C007A5
:1000BF007515007F147E0012021A20B229E4FF7416
:1000CF00082FF8E6601975150174092FF8E6FE740C
:1000DF00082FF8A6060FBF0BE674082FF87600E579
:0600EF0015B40102151416
:1000F500D007D006D005D004D003D002D001D0005F
:0B010500D0D0D082D083D0F0D0E03208
:03000000020016E5
:0C001600787FE4F6D8FD75811A02005DC9
:1001A300BB010CE58229F582E5833AF583E0225011
:1001B30006E92582F8E622BBFE06E92582F8E2225B
:0D01C300E58229F582E5833AF583E4932275
:10002200020110E493A3F8E493A34003F68001F2E3
:1000320008DFF48029E493A3F85407240CC8C333DF
:10004200C4540F4420C8834004F456800146F6DFAE
:10005200E4800B010204081020408090000EE47E30
:10006200019360BCA3FF543F30E509541FFEE493A3
:10007200A360010ECF54C025E060A840B8E493A36A
:10008200FAE493A3F8E493A3C8C582C8CAC583CA95
:10009200F0A3C8C582C8CAC583CADFE9DEE780BE4D
:0100110000EE
:00000001FF
